:100000000206541208121203C780FB020528EC4DA9
:100010006011E8497017ED33EC3304600DE4FCFF28
:10002000FEFD22E933E8330470F80201BE120189B3
:1000300058046009E4CC248150062850090201C804
:100040002840030201C5C0E0EB4A7044B98006D0E5
:10005000E0FB0201B4EF4E701CBD8008EBFFEAFE2E
:10006000E9FD80EBE98DF0A4FEE5F00200F7E9CDB3
:10007000F9EAFEEBFFEF89F0A4FCE5F0CE89F0A4ED
:100080002EFFE435F0CD89F0A42DFEE435F0806735
:10009000EF4E7005BD80D780C3EF8BF0A4ACF0EEBF
:1000A0008BF0A42CFCE435F0F8EF8AF0A42CE5F0FA
:1000B00038FCE433CB8DF0A42CFCE5F03BF8EE8A61
:1000C000F0A42CFCE5F038F8E433CF89F0A42CFC44
:1000D000E5F038CF3400CE89F0A42FFFE5F03EFEE6
:1000E000E433C98DF0A42EFEE5F039CD8AF0A42FBB
:1000F000FFE5F03EFEE43DFD33D0E0FB50070BBBD7
:10010000000F0201C8EC2CFCEF33FFEE33FEED33A1
:10011000FD0201A075F020800E75F010800575F0CD
:10012000087D007E007F003392D530D50312025542
:10013000EC334010EF33FFEE33FEED33FDEC33FCD8
:10014000D5F0ED22E5F0247EA2D513CC92E7CDCEFA
:10015000FF22EDD2E7CD33EC3392D524814006E483
:10016000FFFEFDFC22FCE4CFCECDCC24E050117488
:10017000FF80EDC3CC13CCCD13CDCE13CECF13CF98
:100180000470F030D5DE020255E9D2E7C933E83316
:10019000F892D5EDD2E7CD33EC33FC5002B2D52244
:1001A000EC30E7100FBF000C0EBE00080DBD0004C0
:1001B0000BEB6014A2D5EB13FCED92E7FD2274FF6C
:1001C000FCFDFEFF22E480F8A2D574FF13FC7D80C5
:1001D000E480EFBB010CE58229F582E5833AF583E3
:1001E000E0225006E92582F8E622BBFE06E92582D8
:1001F000F8E222E58229F582E5833AF583E4932249
:10020000BC000BBE0029EF8DF084FFADF022E4CCE2
:10021000F875F008EF2FFFEE33FEEC33FCEE9DECAB
:10022000984005FCEE9DFE0FD5F0E9E4CEFD22EDF1
:10023000F8F5F0EE8420D21CFEADF075F008EF2F3B
:10024000FFED33FD4007985006D5F0F222C398FD2C
:100250000FD5F0EA22C3E49FFFE49EFEE49DFDE497
:100260009CFC22D083D082F8E493701274019370C6
:100270000DA3A393F8740193F5828883E473740249
:10028000936860EFA3A3A380DFE4F51420030302C7
:1002900003C2C2B0C2B1C2B2C2B3D2B4D2B5D2C22A
:1002A000D2C420C40375167020C2037516B020B5E1
:1002B000037516D020B4037516E030B40C30B509C0
:1002C00030C20630C4037516F0D2B0D2B1D2B2D269
:1002D000B3C2B4C2B5C2C2C2C420B00375170E20E7
:1002E000B10375170D20B20375170B20B3037517F3
:1002F0000730B00C30B10930B20630B30375170FB8
:10030000E5164517F515E50814601B147003020384
:10031000BA240260030203C2E515F470030203C2AB
:100320007508010203C2E515B4FF030203BFE5151A
:10033000120263036777036C7B03717D03767E0390
:100340007BB70380BB0385BD038ABE038FD70394AD
:10035000DB0399DD039EDE03A3E703A8EB03ADED0A
:1003600003B2EE000003B5751404804975140580CE
:1003700044751406803F751407803A75140880355B
:10038000751409803075140A802B75140B8026753E
:10039000140C802175140D801C75140E80177514B3
:1003A0000F8012751410800D7514118008751412C9
:1003B00080037514137508028008E515B4FF03E483
:1003C000F508C203AF1422120CFB120CA91209D4B7
:1003D000120CF0D20FA20E92107B96AD587F101225
:1003E00006E01205C5E552FD7C00E4F5187B02FF2E
:1003F00012047BE553FD7C007518037B02E4FF12B9
:10040000047BE551FD7C007518067B02E4FF1204B5
:100410007BE558FD7C007518037B037F0212047B8B
:10042000E509FD7C007518017B017F0312047BE563
:100430000AFD7C007518027B017F0312047BE50B2B
:10044000FD7C007518067B017F0312047BE50CFD23
:100450007C007518077B017F0312047BE51FFD7C80
:1004600000E4F5187B027F0112047BE4FF120A14FA
:10047000AF4F120AE71207BF020C2E8F148C158D96
:1004800016E4FAAE15AF167C277D101202008F1A03
:10049000AE15AF167C277D101202007E037FE8CFD9
:1004A000CDCFCECCCE1202008F1BAE15AF167C0383
:1004B0007DE81202007E007F64CFCDCFCECCCE127D
:1004C00002008F1CAE15AF167C007D641202007E08
:1004D000007F0ACFCDCFCECCCE1202008F1DAE153D
:1004E000AF167C007D0A1202008D1EBBFC12AF020B
:1004F0000A741A2FF8E660F6C374069AF51980029A
:100500008B19C374059519FAEAC394055019741A26
:100510002AF8E6FFAE180518E51475F008A42423A0
:100520002EF8A6070A80E122C0E0C0F0C0D075D046
:1005300000C000C004C005C006C0070554E55475DE
:10054000F00184E5F07002D205E55475F00784E50A
:10055000F07002D203E554540770430555D202E50A
:100560004EAE4D7802CEC313CE13D8F9FDAC06AF14
:10057000557E00120200ED4C7002D206E55575F072
:100580006484E5F07002D204E55575F0FA84E5F074
:100590007002D200E555D394FA4003755500E55436
:1005A00075F02884E5F07002D201E554D39436400A
:1005B00003755400D007D006D005D004D000D0D0A9
:1005C000D0F0D0E032E4F5177B017DCA7F0412073A
:1005D000667517027B037DCA7F05120766751701D2
:1005E000E4FB7DA07F0B120766751702E4FB7DA07C
:1005F0007F0F120766751703E4FB7DA07F131207B8
:1006000066751704E4FB7DA07F0A1207667517055F
:10061000E4FB7DA07F0E120766751706E4FB7DA044
:100620007F12120766751707E4FB7DA07F0912078A
:1006300066751708E4FB7DA07F0D12076675170924
:10064000E4FB7DA07F11120766E4F517FB7DA07F18
:100650000C020766787FE4F6D8FD75815902069B87
:10066000020003E493A3F8E493A34003F68001F2AD
:1006700008DFF48029E493A3F85407240CC8C3339B
:10068000C4540F4420C8834004F456800146F6DF6A
:10069000E4800B0102040810204080900900E47EF1
:1006A000019360BCA3FF543F30E509541FFEE4935F
:1006B000A360010ECF54C025E060A840B8E493A326
:1006C000FAE493A3F8E493A3C8C582C8CAC583CA51
:1006D000F0A3C8C582C8CAC583CADFE9DEE780BE09
:1006E000AE07300F3EEDD39B4015201012120BCDFC
:1006F000EE24C060072430706CD20E22D20D22EDA1
:10070000D39B400320105EEDD39B5059301056AF61
:1007100006120BCDEE24C0600724307048C20E22B2
:10072000C20D22200F3FEDC39B5017201014AF06BF
:10073000120BCDEE24C0600724307029D20E22D2D5
:100740000D22EDC39B500320101BEDC39B401630C0
:100750001013AF06120BCDEF24C0600724307005D4
:10076000C20E22C20D228B16E5136F704AED246073
:10077000602A24D66006240970428014E54CB5171F
:100780000AAF161208B485164C8031E54CB5160731
:10079000AF171208B4800085174C802020111D303F
:1007A000071A74092511F8A617D2110511E511B41D
:1007B000080AE4F5118005AF4C1208B4C2112230CA
:1007C000054FE5A0541F44E0F5A0900D0CE493F50F
:1007D0008053A01FAF4B7401A807088002C333D811
:1007E000FCF580E5A0541F44C0F5A053A01F74433E
:1007F000254BF8E6900D0193F580E5A0541F44E0E9
:10080000F5A053A01F054BE54BB40803E4F54BC21C
:100810000522120C16120C45120CC9C20BC20CE4B4
:10082000F54FF54DF54E7B327D0C7F171208637F37
:1008300003120C97120B617BFF7A0A79C3E4FF1253
:10084000094A7BFF7A0A79CC7F0112094A7BFF7A39
:100850000A79D57F0312094A7BFF7A0A79DE7F0283
:1008600002094AAC07AA05E4FD7F8E120B2AEB753C
:10087000F00A84C454F0FFEB75F00A84EF7F801215
:100880000B27EA75F00A84C454F0FFEA75F00A8475
:10089000EF7F82120B27EC75F00A84C454F0FFEC52
:1008A00075F00A84EF25F0FD7F84120B2A7D807F8E
:1008B0008E020B2AE4FEEF75F008A424232EF8E63E
:1008C000FD74432EF8A6050EBE08EBEF146010145D
:1008D00060131460192403701EC209D208801CD250
:1008E00009C2088016C209C208D20AC20722C20978
:1008F000C208C20AD20722C209C208C20AC207221B
:10090000015400015500080900000000000000002B
:10091000011100C1110108000150FFC10BC10C0100
:100920004C0008430B0B0B0B0B0B0B0B014B00C1CB
:1009300009C108C10AC107C10EC10DC105C101C16C
:1009400000C104C103C102C106008B148A158916B7
:10095000E4FEAB14AA15A9168E827583001201D38A
:10096000602DB4200BEF75F008A424232EF8760B2D
:10097000AB14AA15A9168E827583001201D3B42D6B
:100980000BEF75F008A424232EF8760A0E80C322FC
:10099000C2A9120A757FCC120B097F44120B097F82
:1009A000C87E00120BEA120A757FCC120B097FBEBB
:1009B000120B09120BB3A907120BB3D2A9EFFEADAC
:1009C00001EDFFE4AC06120119E4FBFA7980783DF1
:1009D00012000E2230083C7F85120C71EFC4540FB8
:1009E00075F00AA4FEEF540F2EF5527F81120C71A0
:1009F000EFC4540F75F00AA4FEEF540F2EF5517F8B
:100A000083120C71EFC4540F75F00AA4FEEF540F5B
:100A10002EF55322E55130E016E4FEEF75F008A400
:100A200024232EF8E6B40A02760B0EBE08ED22E46B
:100A3000FEEF75F008A424232EF8E6B40B02760A24
:100A40000EBE08ED22AD07C2AFE4FCC2A07F0512C6
:100A50000CDCED30E704D2A18002C2A17F05120CAC
:100A6000DCD2A0ED25E0FD7F05120CDC0CBC08DB20
:100A7000D2AFC2A022C20FD2947F0C7E00120BEA2A
:100A8000C2947F507E00120BEAD2947F0A7E00123D
:100A90000BEAA294920F120BE6A20F22120A451241
:100AA0000B4FC2AFE4FC120CD8ED25E0FD30A103E2
:100AB000430501C2A07F05120CDC0CBC08E8D2AFD4
:100AC000AF052220202D20202D20200020202D2D9C
:100AD0002D2D2D2D002D202020202D2020002D2DEE
:100AE0002020202020200030061E7401A807088046
:100AF00002C333D8FC6250C206300C0C054FE54FE0
:100B0000C394084003E4F54F22A907E4FBC294E92B
:100B1000139294120BE6D294E9C313F90BBB08EDC0
:100B20007F057E00020BEA25F0FDAE07C293C29757
:100B3000D2935306FEAF06120B7DAF05120B7DC29A
:100B400093C2A322120A45120B4FAF03120A451299
:100B50000CD8A2A1E433FDC2A07F05120CDCAF05C6
:100B600022438E805389F0758A66758CEAE4F58D90
:100B7000F58BC28DC28FD28CD2A9D2AF22C297E49C
:100B8000FEEF30E004D2A38002C2A3D297C297EF57
:100B9000C313FF0EBE08EA22E4FFFEEFC313FF30CB
:100BA000A305430780800353077FD297C2970EBEE9
:100BB00008E922E4FBC294ECC313FCD29430940302
:100BC000430480120BE60BBB08EBAF0422E5596F20
:100BD00053A01FF580F559E5A0541F44A0F5A0537C
:100BE000A01F7580FF227F057E00EF1FAA067001FF
:100BF0001E4A6009007D0B1DED60EF80FA22C2A045
:100C0000EF24FF92A17F05120CDC120CD8C2A0D2F7
:100C1000A17F05020CDCE4FFE4FEEF75F008A424DC
:100C2000232EF8760B0EBE08F10FBF04EB22300224
:100C300013300B10855080E5A0541F4480F5A0535D
:100C4000A01FC2022253A01FE4F580F559E5A0546D
:100C50001F44A0F5A053A01F7580FF22120CBA7F7D
:100C600091120A9CAD077F01120BFE120CE4AF0536
:100C700022C293C297D293430701120B7D120B98A5
:100C8000C293C2A322AD071FED600BE4FEEEC39436
:100C90007050F20E80F722AB07120CBA7F90120B45
:100CA00044120CE47F0A020C8530000D30090A1250
:100CB00009901201528F1FC20022D2A1120CD8C279
:100CC000A17F05120CDCC2A0227580FFE5A0541F95
:100CD0004480F5A053A01F22D2A07F0500AE071FBD
:100CE000EE70F922C2A1120CD8D2A17F05020CDC51
:100CF000300107C201120C5C8F58221202898F1337
:0E0D000022C0F9A4B0999282F88090BFFF7FC4
:00000001FF
